:020000000C945E
:100002002A000C9400000C9400000C9400000C9444
:1000120000000C9400000C9400000C9400000C945E
:1000220000000C9400000C9400000C9400000C944E
:1000320000000C9400000C9400000C9400000C943E
:1000420000000C9400000C9400000C9400000C942E
:100052000000F894EE27ECBBF1E0FBBFEBBFE5BF7D
:100062008DE0A2E0BB27ED938A95E9F780E098E066
:10007200A0E6ED930197E9F7EFE5EDBFE8E0EEBF0B
:10008200C0E6D2E00C94B500DC98A4E099D0DC9AEA
:10009200DD98A5E095D0DD9ADE98A6E091D0DE9AB3
:1000A200DF98A7E08DD0DF9A5CD00895BA93AA9327
:1000B200E881F981E430A0E0FA0791F4C89903C01D
:1000C200EFEBE6BB0CC0C99902C0E6E807C0CA99CB
:1000D20002C0EBED03C0CB9902C0EFECE8BB3FC01E
:1000E200E530A0E0FA0789F4C89902C0E6EE0BC039
:1000F200C99902C0EDEE07C0CA9902C0EDEF03C074
:10010200CB9902C0E7E8E8BB2AC0E630A0E0FA07D4
:1001120079F4C89B0AC0C99902C0E7EE07C0CA9920
:1001220002C0E7EF03C0CB9902C0EFEFE8BB17C0F4
:10013200E730A0E0FA0789F4C89902C0E9EB0BC0E6
:10014200C99902C0EFEB07C0CA9902C0E9EF03C028
:10015200CB9902C0E1EFE8BB02C0EFEFE8BB229609
:100162000895EFEFE8BB0895E0EFEABBEFEFEBBBDA
:10017200E7BBE8BBE0EFE4BBE0E1E5BBE0E0E1BB0D
:10018200E2BBE3BFE2BFECBFEFBDEEBDEDBDECBD38
:10019200E7BDE6BDEBBDEABDE9BDE8BDE2BDE5BD3B
:1001A200E4BDE3BDE9BFE5BFE4BFEAB9E0E8E8B911
:1001B200E0E0E0BFE6B9EDB9E6BF66DFFECFFFCF14
:1001C200B0E074DFA5E0B0E00C94E700109639F0DF
:1001D20080ED97E00197F1F7A8951197C9F7089577
:00000001FF
