:020000020000FC
:100000000C941A000C9404000E943000A3B300006A
:10001000A095A07F000000000000000000000E94EA
:100020003600B3B30000B095BF70B8BBAB2B0E94D5
:100030003C0018950FE50DBF14E01EBFCC2712E061
:1000400015BF00E40BBF00EF04BB0FE005BB04E0ED
:1000500002BB78940FEF0ABB00E00BBB0C942E00A0
:100060000FE004BB00EF05BB0000089500EF04BBE8
:100070000FE005BB00000895A13139F4CC2700E062
:10008000C02B0EE70BBB0C94C900A23139F4CC276E
:1000900001E0C02B00E30BBB0C94C900A43139F480
:1000A000CC2702E0C02B0DE60BBB0C94C900A83195
:1000B00039F4CC2703E0C02B09E70BBB0C94C90033
:1000C000A13241F4CC2704E0C02B03E30BBBC8BB37
:1000D0000C94C900A23239F4CC2705E0C02B0BE503
:1000E0000BBB0C94C900A43239F4CC2706E0C02B1A
:1000F0000FE50BBB0C94C900A83239F4CC2707E0FC
:10010000C02B00E70BBB0C94C900A13439F4CC27F9
:1001100008E0C02B0FE70BBB0C94C900A23439F4E4
:10012000CC2709E0C02B0BE70BBB0C94C900A4340F
:1001300039F4CC270AE0C02B07E70BBB0C94C900AD
:10014000A83439F4CC270BE0C02B0FE10BBB0C9487
:10015000C900A13839F4CC270CE0C02B0EE40BBB4E
:100160000C94C900A23839F4CC270DE0C02B0DE364
:100170000BBB0C94C900A43839F4CC270EE0C02B7B
:100180000FE40BBB0C94C900CC270FE0C02B07E495
:040190000BBB089508
:00000001FF
