:020000000C945E
:1000020033000C94CC000C94FC000C9400000C9473
:1000120000000C9400000C9400000C9400000C945E
:1000220000000C9400000C9400000C9400000C944E
:1000320000000C9400000C9400000C9400000C943E
:1000420000000C9400000C9400000C9400000C942E
:100052000000000080C002000A005400020060029A
:1000620056000000F894EE27ECBBF1E0FBBFEBBFBB
:10007200E5BF8DE0A2E0BB27ED938A95E9F780E02A
:1000820098E0A0E6ED930197E9F7E8E5F0E08591C5
:100092009591009761F0A591B59105901590BF01DA
:1000A200F00105900D920197E1F7FB01F0CFEFE52A
:1000B200EDBFE8E0EEBFC0E6D2E00C941A01BA93BD
:1000C200AA93E881F981E430A0E0FA0789F4C8999B
:1000D20002C0E0E30BC0C99902C0E1E307C0CA99BC
:1000E20002C0E2E303C0CB9902C0E3E39E2E41C00B
:1000F200E530A0E0FA0789F4C89902C0E4E30BC036
:10010200C99902C0E5E307C0CA9902C0E6E303C089
:10011200CB9902C0E7E39E2E2CC0E630A0E0FA079E
:1001220089F4C89902C0E8E30BC0C99902C0E9E3A7
:1001320007C0CA9902C0E1E403C0CB9902C0E2E45D
:100142009E2E17C0E730A0E0FA0789F4C89902C0D2
:10015200E3E40BC0C99902C0E4E407C0CA9902C033
:10016200E5E403C0CB9902C0E6E49E2E02C0EFEFA5
:10017200E8BBCCC0DC98A4E029D1DC9ADD98A5E0EC
:1001820025D1DD9ADE98A6E021D1DE9ADF98A7E09C
:100192001DD1DF9A08950A928A939A93AA93BA93E9
:1001A200EA93FA93EFB7EA93062C0728D1F0229745
:1001B200E0E0E883E983A881B9811F978CF4A881E4
:1001C200B981A40DB51DE881F981E60DF71DE08125
:1001D2000E941002E881F9813196E883F983EBCF1E
:1001E2002296E991EFBFF991E991B991A99199917B
:1001F2008991099018950A921A92FA926A937A93BF
:100202008A939A93AA93BA93EA93FA93EFB7EA93EB
:100212007FD0D2019CD0E991EFBFF991E991B991D8
:10022200A9919991899179916991F990199009907F
:100232001895E0E0EABBEBBBE7BBE8BBE4BBE5BB80
:10024200E1BBE2BBE3BFE2BFECBFEFBDEEBDEDBD84
:10025200ECBDE7BDE6BDEBBDEABDE9BDE8BDE2BD73
:10026200E5BDE4BDE3BDE9BFEBB7E06CEBBFEAE09F
:10027200E5BFE0E0E4BFE0ECEABFE0E0EAB9E0E8D5
:10028200E8B9E0E0E0BFE6B9EDB9E6BFA0E173D0BE
:10029200789470DFF501E60DF71D9082EFE0F0E053
:1002A200AE16BF0624F4F50131965F0102C0AA24FE
:1002B200BB24EFCFFFCFAA93E8B3EF70AE2FE88154
:1002C200E07FEA2BE8BB8DE08A95F1F7969A8DE004
:1002D2008A95F1F796988DE08A95F1F775C0AA9301
:1002E200A881E9DFE881E295E883A881E4DF85E877
:1002F2008A95F1F769C0AA93E881F0E0E05AFD4FD0
:10030200E081A981AE0FEBDF8980D8802296089523
:10031200A2E063D0ACE0E3DFA1E05FD0E0E0DE2E5C
:100322008E2E0895AA93A881AA3011F08C1448F059
:10033200E0E0EA93D394AD2DDEDFA881AA3009F480
:1003420043C08394AB9AA881CADFAB983DC0BA93ED
:10035200AA931A93A981BA811196A983BA83119794
:100362000E9404021E2FE03019F0A12FDBDFF2CF32
:10037200188123960895AA93E7B3E06FE7BB8E9A9C
:10038200A39A8F9A9698AB989798C880E881E0587C
:10039200E0936202E881E054E0936302A4E1B0E0FA
:1003A2000E94FA011FD01ED01DD0A0E284DF88EC8B
:1003B20090E00197F1F7A8E292DFA4E090DFA5E8D0
:1003C2008EDFA6E08CDFA4DF21960895B0E00E94C4
:1003D2006000A2E3B0E00C94FA0181DFA3E0B0E098
:1003E2000C94FA01A0E367DF88EC90E00197F1F743
:1003F2000895109639F080ED97E00197F1F7A895EE
:100402001197C9F70895E199FECFFF93FFB7F894CA
:10041200AEBBBFBBE09AEDB3FFBFFF910895E19B76
:1004220002C0A895FCCF9FB7F894AEBBBFBBE09AC1
:100432008DB3E81719F0EDBBE29AE19A9FBF0895D8
:00000001FF
