:060000000C9443000C9477
:10000600DC000C94F6000C9400000C9400000C9498
:1000160000000C9400000C9400000C9400000C945A
:1000260000000C9400000C9400000C9400000C944A
:1000360000000C9400000C9400000C9400000C943A
:1000460000000C9400000C9400000C9400000000CA
:10005600696E7420646F6E6500696E743120737406
:100066006172740080C0020008005400090060023A
:1000760056000B0069025F00020083026A0000005E
:10008600F894EE27ECBBF1E0FBBFEBBFE5BF8DE0DC
:10009600A2E0BB27ED938A95E9F780E098E0A0E619
:1000A600ED930197E9F7ECE6F0E0859195910097DD
:1000B60061F0A591B59105901590BF01F0010590ED
:1000C6000D920197E1F7FB01F0CFEFE5EDBFE8E018
:1000D600EEBFC0E6D2E00C941B01BA93AA93E88166
:1000E600F981E430A0E0FA0789F4C89902C0E0E398
:1000F6000BC0C99902C0E1E307C0CA9902C0E2E396
:1001060003C0CB9902C0E3E37E2E41C0E530A0E0F8
:10011600FA0789F4C89902C0E4E30BC0C99902C082
:10012600E5E307C0CA9902C0E6E303C0CB9902C063
:10013600E7E37E2E2CC0E630A0E0FA0789F4C899E2
:1001460002C0E8E30BC0C99902C0E9E307C0CA9937
:1001560002C0E1E403C0CB9902C0E2E47E2E17C0E0
:10016600E730A0E0FA0789F4C89902C0E3E40BC0BF
:10017600C99902C0E4E407C0CA9902C0E5E403C015
:10018600CB9902C0E6E47E2E02C0EFEFE8BBC5C005
:10019600DC98A4E01FD1DC9ADD98A5E01BD1DD9A9E
:1001A600DE98A6E017D1DE9ADF98A7E013D1DF9A92
:1001B600089517D100E010E0081519057CF4F80140
:1001C600E40DF51D0F01A4E7B2E0A00FB11FEC91FD
:1001D600D0010E941A020F5F1F4FEECFA0D0A0E6FB
:1001E600B2E0BCD015C0FDD09AD0A9E6B2E0B6D038
:1001F600A2E3B0E00E94100292D000E010E00815E1
:10020600190534F4A4E7B2E0A9D00F5F1F4FF7CF6A
:1002160009911991E991EFBFF991E991B991A991E4
:100226009991899179916991F99019900990189508
:10023600E0EFEABBEFEFEBBBE0E0E7BBE8BBE4BB1C
:10024600E5BBE1BBE2BBE3BFE2BFECBFEFBDEEBD8A
:10025600EDBDECBDE7BDE6BDEBBDEABDE9BDE8BD64
:10026600E2BDE5BDE4BDE3BDE9BFEBB7E06CEBBFC6
:10027600EAE0E5BFE0E0E4BFE0ECEABFE0E0EAB9CF
:10028600E0E8E8B9E0E0E0BFE6B9EDB9E6BFA0E135
:1002960076D078947DDF772041F041D0A72D49D0E4
:1002A600F401EC58FD4F70827724EFE0F0E08E16F3
:1002B6009F0624F4F40131964F0102C08824992444
:1002C600E9CFFFCFAA93E8B3EF70AE2FE881E07FC6
:1002D600EA2BE8BB8DE08A95F1F7969A8DE08A9530
:1002E600F1F796988DE08A95F1F772C0AA93A881E6
:1002F600E9DFE881E295E883A881E4DF85E88A956D
:10030600F1F766C0AA93E881F0E0ED57FD4FE08172
:10031600A981AE0FEBDF6980B88022960895A2E02E
:1003260070D0ACE0E3DFA1E06CD0E0E0BE2E6E2E34
:100336000895AA93A881AA3011F06A1448F0E0E063
:10034600EA93B394AB2DDEDFA881AA3009F440C04E
:100356006394AB9AA881CADFAB983AC0BA93AA93C2
:100366001A93A981BA81ED91A983BA831E2FE03031
:1003760019F0A12FDEDFF5CF188123960895AA93F1
:10038600E7B3E06FE7BB8E9AA39A8F9A9698AB98DD
:100396009798A880E881E058E0938502E881E054C8
:1003A600E0938602A4E1B0E00E9410022FD02ED086
:1003B6002DD0A0E287DF88EC90E00197F1F7A8E264
:1003C60095DFA4E093DFA5E891DFA6E08FDFA7DF46
:1003D60021960895B0E00E947000A5E0B0E00C946C
:1003E60010020A921A92FA926A937A938A939A93CD
:1003F600AA93BA93EA93FA93EFB7EA931A930A93F6
:10040600089574DFA3E0B0E00C941002A0E35ADF75
:1004160088EC90E00197F1F70895109639F080ED99
:1004260097E00197F1F7A8951197C9F70895E19B11
:1004360002C0A895FCCF9FB7F894AEBBBFBBE09AAD
:100446008DB3E81719F0EDBBE29AE19A9FBF0895C4
:00000001FF
