:040000000C948000DC
:100004000C9400000C9400000C9400000C9400006C
:100014000C9400000C9400000C9400000C9400005C
:100024000C9400000C9400000C9400000C9400004C
:100034000C9400000C9400000C9400000C9400003C
:100044000C9400000C9400000C9400000C9400002C
:1000540056007369617661736800300031003200C4
:1000640033003400350036003700380039004100D1
:100074004200430044004500460048656C6C6F2014
:10008400576F726C640080C00200040054000200C8
:1000940060025E000200620260000200640262000C
:1000A40002006602640002006802660002006A023E
:1000B400680002006C026A0002006E026C0002001A
:1000C40070026E000200720270000200740272007C
:1000D40002007602740002007802760002007A02BE
:1000E400780002007C027A0002007E027C000C0090
:1000F40080027E0002008C028A000000F894EE2741
:10010400ECBBF1E0FBBFEBBFE5BF8DE0A2E0BB279A
:10011400ED938A95E9F780E098E0A0E6ED930197E6
:10012400E9F7ECE8F0E085919591009761F0A591ED
:10013400B59105901590BF01F00105900D920197BE
:10014400E1F7FB01F0CFEFE5EDBFE8E0EEBFC0E67D
:10015400D2E00C942E01DC98A4E04ED1DC9ADD9818
:10016400A5E04AD1DD9ADE98A6E046D1DE9ADF9872
:10017400A7E042D1DF9A6DD00895BA93AA93D0D064
:10018400E881F981E430A0E0FA07A9F4C89903C032
:10019400A0E6B2E00EC0C99903C0A2E6B2E009C06D
:1001A400CA9903C0A4E6B2E004C0CB9903C0A6E692
:1001B400B2E0D5D04DC0E530A0E0FA07A9F4C89963
:1001C40003C0A8E6B2E00EC0C99903C0AAE6B2E033
:1001D40009C0CA9903C0ACE6B2E004C0CB9903C01D
:1001E400AEE6B2E0BCD034C0E630A0E0FA07A9F431
:1001F400C89903C0A0E7B2E00EC0C99903C0A2E742
:10020400B2E009C0CA9903C0A4E7B2E004C0CB9924
:1002140003C0A6E7B2E0A3D01BC0E730A0E0FA0712
:10022400A9F4C89903C0A8E7B2E00EC0C99903C0F5
:10023400AAE7B2E009C0CA9903C0ACE7B2E004C0BF
:10024400CB9903C0AEE7B2E08AD002C0EFEFE8BBBF
:1002540065C0EFEFE8BB0895E0EFEABBEFEFEBBB5F
:10026400E0E0E7BBE8BBE4BBE5BBE1BBE2BBE3BF6B
:10027400E2BFECBFEFBDEEBDEDBDECBDE7BDE6BD3D
:10028400EBBDEABDE9BDE8BDE2BDE5BDE4BDE3BD4E
:10029400E9BFE5BFE4BFEAB9E0E8E8B9E0E0E0BF00
:1002A400E6B9EDB9E6BFA0E17CD03AD0A0E8B2E06F
:1002B40056D0A4E6B0E00E94100232D0D2015ED043
:1002C4004ADFFECFFFCFAA93E8B3EF70AE2FE881E9
:1002D400E07FEA2BE8BB8DE08A95F1F7969A8DE0F2
:1002E4008A95F1F796988DE08A95F1F783C0AA93E1
:1002F400A881E9DFE881E295E883A881E4DF85E865
:100304008A95F1F777C0AA93E881F0E0E457FD4FAE
:10031400E081A981AE0FEBDF798068802296089591
:10032400A2E070D0ACE0E3DFA1E06CD0E0E06E2EA0
:100334007E2E0895AA93A881AA3011F0791448F06A
:10034400E0E0EA936394A62DDEDFA881AA3009F4E5
:1003540051C07394AB9AA881CADFAB984BC0BA93CF
:10036400AA931A93A981BA81ED91A983BA831E2F06
:10037400E03019F0A12FDEDFF5CF10C0BA93AA93B5
:100384001A93E981FA813196E983FA833197E491EA
:100394001E2FE03019F0A12FCDDFF3CF1881239663
:1003A4000895AA93E7B3E06FE7BB8E9AA39A8F9A56
:1003B4009698AB9897989880E881E058E0938E02DD
:1003C400E881E054E0938F02A4E1B0E00E941002BF
:1003D4001ED01DD01CD0A0E276DF88EC90E00197FF
:1003E400F1F7A8E284DFA4E082DFA5E880DFA6E0DD
:1003F4007EDF96DF21960895B0E0BFDEA2E3B0E091
:100404000C94100274DFA3E0B0E00C941002A0E39B
:100414005ADF88EC90E00197F1F70895109639F0CF
:1004240080ED97E00197F1F7A8951197C9F7089522
:00000001FF
