:020000020000FC
:1001E0000AB3006F0ABB0BB30F70107F012B0BBB60
:1001F000DB9A000000000000DB980AB30F700ABB16
:1002000008951F930AB3006F0ABB0BB30170107FF0
:10021000012B0BBBD99ADB9A000000000000DB9891
:100220001F910F701295107F012B0BBBD99ADB9A8F
:10023000000000000000DB98D9980AB30F700ABBD9
:1002400008951F930AB3006F0ABB0BB30170107FB0
:10025000012B0BBBDB9A000000000000DB981F9114
:100260000F701295107F012B0BBBDB9A0000000072
:100270000000DB980AB30F700ABB08950AB30F7031
:100280000ABBD99ADA9ADB9A000009B3007F202FC3
:10029000DB9800000000DB9A000009B3007F0295A4
:1002A000202BDB98D998DA9808950AB30F700ABB0F
:1002B000D998DA9ADB9A000009B3007F202FDB98E7
:1002C00000000000DB9A000009B3007F0295202B9C
:1002D000DB98DA980895E9DF2078E9F70895222479
:1002E00033243A94F1F72A94D9F708950EE00ABB23
:1002F000F6DF10E275DFEFDF18E2A3DFECDF1FE0CF
:10030000A0DFE9DF11E09DDFE6DF16E09ADF089568
:040000000C941E003E
:100038000C943A00F8940FE50DBF14E01EBF07B109
:10004800006C07B906B10F6E06B900E000BF4AD1CF
:1000580005B7006105BF05B7006405BF78948895AA
:1000680005B7006005BF78940C944E00F89404B16D
:10007800E02F05B1F02F09D02AD111E0DED01E2FD4
:100088000AD029D1369A78941895F595E795F5957B
:10009800E7950895FFCF412F3327445610F0339545
:1000A800FCCF00E3300F132F13D004E6400F3327A3
:1000B8004A5010F03395FCCF00E3300F132F08D0CF
:1000C8000AE0400F332700E3400F142F01D00895B2
:0600D800FED093D0089554
:00000001FF
