:020000020000FC
:1001E0000AB3006F0ABB0BB30F70107F012B0BBB60
:1001F000DB9A000000000000DB980AB30F700ABB16
:1002000008951F930AB3006F0ABB0BB30170107FF0
:10021000012B0BBBD99ADB9A000000000000DB9891
:100220001F910F701295107F012B0BBBD99ADB9A8F
:10023000000000000000DB98D9980AB30F700ABBD9
:1002400008951F930AB3006F0ABB0BB30170107FB0
:10025000012B0BBBDB9A000000000000DB981F9114
:100260000F701295107F012B0BBBDB9A0000000072
:100270000000DB980AB30F700ABB08950AB30F7031
:100280000ABBD99ADA9ADB9A000009B3007F202FC3
:10029000DB9800000000DB9A000009B3007F0295A4
:1002A000202BDB98D998DA9808950AB30F700ABB0F
:1002B000D998DA9ADB9A000009B3007F202FDB98E7
:1002C00000000000DB9A000009B3007F0295202B9C
:1002D000DB98DA980895E9DF2078E9F70895222479
:1002E00033243A94F1F72A94D9F708950EE00ABB23
:1002F000F6DF10E275DFEFDF18E2A3DFECDF1FE0CF
:10030000A0DFE9DF11E09DDFE6DF16E09ADF089568
:100000000C940200F8940FE50DBF04E00EBF04D07D
:1000100078940C940B00FFCF69D161D118E4F1D032
:100020005ED115E4EED05BD11CE4EBD058D11CE4DA
:10003000E8D055D11FE4E5D052D110E2E2D04FD143
:1000400017E5DFD04CD11FE4DCD049D112E5D9D07F
:0E00500046D11CE4D6D043D114E4D3D0089599
:00000001FF
