:100000000C9451000C94F2000C9400010C9400002C
:100010000C9400000C9400000C9400000C94000060
:100020000C9400000C9400000C9400000C94000050
:100030000C9400000C9400000C9400000C94000040
:100040000C9400000C9400000C9400000C94000030
:100050000C940000737461727420706F7765722065
:10006000646F776E00706F77657220646F776E20B3
:10007000646F6E652100737461727420706F7765B0
:1000800072206F6E000080C01100600254001100E9
:10009000710265000F008202760002009102860064
:1000A0000000F894EE27ECBBF1E0FBBFEBBFE5BF2F
:1000B0008DE0A2E0BB27ED938A95E9F780E098E018
:1000C000A0E6ED930197E9F7E8E8F0E085919591D6
:1000D000009761F0A591B59105901590BF01F001D1
:1000E00005900D920197E1F7FB01F0CFEFE5EDBF31
:1000F000E8E0EEBFC0E6D2E00C941601DC98A4E084
:100100000E94EB01DC9ADD98A5E00E94EB01DD9AEC
:10011000DE98A6E00E94EB01DE9ADF98A7E00E943D
:10012000EB01DF9A5CD00895BA93AA93E881F98134
:10013000E430A0E0FA0789F4C89902C0E0EC0BC0F3
:10014000C99902C0EFEC07C0CA9902C0E4EA03C033
:10015000CB9902C0E0EBE8BB41C0E530A0E0FA0774
:1001600089F4C89902C0E9E90BC0C99902C0E2E963
:1001700007C0CA9902C0E2E803C0CB9902C0E8EF09
:10018000E8BB2CC0E630A0E0FA0789F4C89902C0A9
:10019000E0E80BC0C99902C0E0E907C0CA9902C0F3
:1001A000E8E803C0CB9902C0E3E8E8BB17C0E7303A
:1001B000A0E0FA0789F4C89902C0EEE90BC0C9991A
:1001C00002C0E1EA07C0CA9902C0E6E803C0CB99C1
:1001D00002C0EEE8E8BB02C0EFEFE8BB89C0EFEF7A
:1001E000E8BB08950E94F20185D0A0E6B2E0A3D05A
:1001F0000E94DA010E94E2017DD0A1E7B2E007C0CF
:100200000E94F2010E94DE0175D0A2E8B2E093D014
:10021000E991EFBFF991E991B991A99199918991EA
:1002200079916991F990199009901895E0EFEABBDE
:10023000EFEFEBBBE7BBE8BBE0EFE4BBE0E1E5BB26
:10024000E0E0E1BBE2BBE3BFE2BFECBFEFBDEEBD70
:10025000EDBDECBDE7BDE6BDEBBDEABDE9BDE8BD6A
:10026000E2BDE5BDE4BDE3BDE9BFEBB7E06CEBBFCC
:10027000EAE0E5BFE0E0E4BFE0ECEABFE0E0EAB9D5
:10028000E0E8E8B9E0E0E0BFE6B9EDB9E6BFA0E13B
:1002900063D0789433DFFECFFFCFAA93E8B3EF703B
:1002A000AE2FE881E07FEA2BE8BB8DE08A95F1F77D
:1002B000969A8DE08A95F1F796988DE08A95F1F7F8
:1002C00077C0AA93A881E9DFE881E295E883A88155
:1002D000E4DF85E88A95F1F76BC0AA93E881F0E046
:1002E000EF56FD4FE081A981AE0FEBDF59804880CA
:1002F00022960895A2E00E940002ACE0E2DFA1E0B5
:100300000E940002E0E04E2E5E2E0895AA93A8817E
:10031000AA3011F0571448F0E0E0EA934394A42D7A
:10032000DCDFA881AA3009F443C05394AB9AA881BA
:10033000C8DFAB983DC0BA93AA931A93A981BA813A
:10034000ED91A983BA831E2FE03019F0A12FDEDFD3
:10035000F5CF188123960895AA93E7B3E06FE7BB22
:100360008E9AA39A8F9A9698AB9897987880E881FE
:10037000E058E0939302E881E054E0939402A4E112
:10038000B0E00E940E020E9406020E9406020E9435
:100390000602A0E282DF88EC90E00197F1F7A8E284
:1003A00090DFA4E08EDFA5E88CDFA6E08ADFA2DF85
:1003B00021960895E5B7E068E5BF0895E5B7EF77C2
:1003C000E5BF0895E5B7EF78E062E5BFEFB7789451
:1003D0008895EFBF0895B0E00E949400A5E0B0E0DA
:1003E0000C940E020A921A92FA926A937A938A9362
:1003F0009A93AA93BA93EA93FA93EFB7EA9308957C
:100400000E946101A3E0B0E00C940E02A0E30E9400
:100410004D0188EC90E00197F1F70895109639F0BE
:1004200080ED97E00197F1F7A8951197C9F7089526
:00000001FF
