:100000000C9433000C94CD000C94FD000C94000073
:100010000C9400000C9400000C9400000C94000060
:100020000C9400000C9400000C9400000C94FE0052
:100030000C9400000C9400000C9400000C94000040
:100040000C9400000C9400000C9400000C94000030
:100050000C940000000080C002000A00540002005E
:10006000600256000000F894EE27ECBBF1E0FBBF05
:10007000EBBFE5BF8DE0A2E0BB27ED938A95E9F7E2
:1000800080E098E0A0E6ED930197E9F7E8E5F0E07D
:1000900085919591009761F0A591B5910590159086
:1000A000BF01F00105900D920197E1F7FB01F0CF40
:1000B000EFE5EDBFE8E0EEBFC0E6D2E00C94FF0054
:1000C000BA93AA93E881F981E430A0E0FA0789F4B1
:1000D000C89902C0E0E30BC0C99902C0E1E307C0C0
:1000E000CA9902C0E2E303C0CB9902C0E3E39E2EAB
:1000F00041C0E530A0E0FA0789F4C89902C0E4E302
:100100000BC0C99902C0E5E307C0CA9902C0E6E383
:1001100003C0CB9902C0E7E39E2E2CC0E630A0E0DE
:10012000FA0789F4C89902C0E8E30BC0C99902C074
:10013000E9E307C0CA9902C0E1E403C0CB9902C059
:10014000E2E49E2E17C0E730A0E0FA0789F4C899D0
:1001500002C0E3E40BC0C99902C0E4E407C0CA9935
:1001600002C0E5E403C0CB9902C0E6E49E2E02C0C3
:10017000EFEFE8BB22960895DC98A4E0DCD0DC9A8F
:10018000DD98A5E0D8D0DD9ADE98A6E0D4D0DE9A3E
:10019000DF98A7E0D0D0DF9A08950A928A939A93C5
:1001A000AA93BA93EA93FA93EFB7EA93062C072837
:1001B000D1F02297E0E0E883E983A881B9811F9715
:1001C0008CF4A881B981A40DB51DE881F981E60DF3
:1001D000F71DE0810E94B701E881F9813196E8833B
:1001E000F983EBCF2296E991EFBFF991E991B991AB
:1001F000A991999189910990189518951895E0EF12
:10020000EABBEFEFEBBBE0E0E7BBE8BBE4BBE5BB81
:10021000E1BBE2BBE5E0E3BFE0E0E2BFECBFEFBD86
:10022000EEBDEDBDECBDE7BDE6BDEBBDEABDE9BD94
:10023000E8BDE2BDE5BDE4BDE3BDE1E0E9BFEBB78C
:10024000E06CEBBFEAE0E5BFE0E0E4BFE0ECEABF72
:10025000E0E0EAB9E0E8E8B9E0E0E0BFE6B9EDB92E
:10026000E6BFA0E13DD0789487DFF501E60DF71DEC
:100270009082EFE0F0E0AE16BF0624F4F50131966F
:100280005F0102C0AA24BB24EFCFFFCFAA93E8B33B
:10029000EF70AE2FE881E07FEA2BE8BB8DE08A9516
:1002A000F1F7969A8DE08A95F1F796988DE08A9508
:1002B000F1F73FC0AA93A881E9DFE881E295E883DE
:1002C000A881E4DF85E88A95F1F733C0A2E039D050
:1002D000ACE0F0DFA1E035D0E0E0DE2E8E2E089518
:1002E000AA93E7B3E06FE7BB8E9AA39A8F9A96988A
:1002F000AB989798C880E881E058E0936202E88163
:10030000E054E0936302A4E1B0E00E94AD011ED08E
:100310001DD01CD0A0E2BADF88EC90E00197F1F785
:10032000A8E2C8DFA4E0C6DFA5E8C4DFA6E0C2DF1C
:10033000CDDF21960895B0E0C3DEA2E3B0E00C94D7
:10034000AD01B8DFA3E0B0E00C94AD01A0E39EDF07
:1003500088EC90E00197F1F70895109639F080ED60
:1003600097E00197F1F7A8951197C9F70895E19BD8
:1003700002C0A895FCCF9FB7F894AEBBBFBBE09A74
:100380008DB3E81719F0EDBBE29AE19A9FBF08958B
:00000001FF
