:0E0000000C9444000C94DD000C94F8000C9459
:10000E0000000C9400000C9400000C9400000C9462
:10001E0000000C9400000C9400000C9400000C9452
:10002E0000000C9400000C9400000C9400000C9442
:10003E0000000C9400000C9400000C9400000C9432
:10004E0000000C9400000000696E743020646F6E26
:10005E006500696E7431207374617274000080C023
:10006E000200060054000A00600256000B006A02ED
:10007E006000020084026C000000F894EE27ECBBD6
:10008E00F1E0FBBFEBBFE5BF8DE0A2E0BB27ED9338
:10009E008A95E9F780E098E0A0E6ED930197E9F7FD
:1000AE00EEE6F0E085919591009761F0A591B591FE
:1000BE0005901590BF01F00105900D920197E1F7A3
:1000CE00FB01F0CFEFE5EDBFE8E0EEBFC0E6D2E01A
:1000DE000C942301BA93AA93E881F981E430A0E04D
:1000EE00FA0789F4C89902C0E0E30BC0C99902C0AF
:1000FE00E1E307C0CA9902C0E2E303C0CB9902C094
:10010E00E3E35E2E41C0E530A0E0FA0789F4C8991A
:10011E0002C0E4E30BC0C99902C0E5E307C0CA9967
:10012E0002C0E6E303C0CB9902C0E7E35E2E2CC00B
:10013E00E630A0E0FA0789F4C89902C0E8E30BC0E4
:10014E00C99902C0E9E307C0CA9902C0E1E403C03D
:10015E00CB9902C0E2E45E2E17C0E730A0E0FA07AA
:10016E0089F4C89902C0E3E40BC0C99902C0E4E463
:10017E0007C0CA9902C0E5E403C0CB9902C0E6E409
:10018E005E2E02C0EFEFE8BBCCC0DC98A4E026D117
:10019E00DC9ADD98A5E022D1DD9ADE98A6E01ED18C
:1001AE00DE9ADF98A7E01AD1DF9A08951ED100E0FB
:1001BE0010E00F30E0E01E077CF4F801E050F04054
:1001CE000F01A5E7B2E0A00FB11FEC91D0010E9484
:1001DE002E020F5F1F4FEDCFA6D0A0E6B2E0C2D029
:1001EE001BC003D1A0D0AAE6B2E0BCD0A2E3B0E01F
:1001FE000E94180298D000E010E00F30E0E01E07D9
:10020E005CF4A0E0B0E0A00FB11F0E942202AE2F5E
:10021E0094D00F5F1F4FF1CF09911991E991EFBF64
:10022E00F991E991B991A9919991899179916991F0
:10023E00F990199009901895E0EFEABBEFEFEBBB40
:10024E00E0E0E7BBE8BBE4BBE5BBE1BBE2BBE3BF81
:10025E00E2BFECBFEFBDEEBDEDBDECBDE7BDE6BD53
:10026E00EBBDEABDE9BDE8BDE2BDE5BDE4BDE3BD64
:10027E00E9BFEBB7E06CEBBFEAE0E5BFE0E0E4BF5F
:10028E00E0ECEABFE0E0EAB9E0E8E8B9E0E0E0BFC0
:10029E00E6B9EDB9E6BFA8E076D0789476DF5520C2
:1002AE0041F041D0A52D49D0F301EB58FD4F5082BE
:1002BE005524EFE0F0E06E167F0624F4F30131963C
:1002CE003F0102C066247724E9CFFFCFAA93E8B39B
:1002DE00EF70AE2FE881E07FEA2BE8BB8DE08A95C8
:1002EE00F1F7969A8DE08A95F1F796988DE08A95BA
:1002FE00F1F772C0AA93A881E9DFE881E295E8835D
:10030E00A881E4DF85E88A95F1F766C0AA93E881B3
:10031E00F0E0EC57FD4FE081A981AE0FEBDF498095
:10032E00988022960895A2E070D0ACE0E3DFA1E0C1
:10033E006CD0E0E09E2E4E2E0895AA93A881AA308E
:10034E0011F0481448F0E0E0EA939394A92DDEDF13
:10035E00A881AA3009F440C04394AB9AA881CADFA1
:10036E00AB983AC0BA93AA931A93A981BA81ED9128
:10037E00A983BA831E2FE03019F0A12FDEDFF5CF4F
:10038E00188123960895AA93E7B3E06FE7BB8E9A80
:10039E00A39A8F9A9698AB9897988880E881E058A0
:1003AE00E0938602E881E054E0938702A4E1B0E096
:1003BE000E9418022FD02ED02DD0A0E287DF88EC1D
:1003CE0090E00197F1F7A8E295DFA4E093DFA5E8AE
:1003DE0091DFA6E08FDFA7DF21960895B0E00E949F
:1003EE007100A5E0B0E00C9418020A921A92FA92EB
:1003FE006A937A938A939A93AA93BA93EA93FA9307
:10040E00EFB7EA931A930A93089574DFA3E0B0E06E
:10041E000C941802A0E35ADF88EC90E00197F1F7F4
:10042E000895109639F080ED97E00197F1F7A895B1
:10043E001197C9F70895E199FECFFF93FFB7F8948E
:10044E00AEBBBFBBE09AEDB3FFBFFF910895E19B3A
:10045E0002C0A895FCCF9FB7F894AEBBBFBBE09A85
:10046E008DB3E81719F0EDBBE29AE19A9FBF08959C
:00000001FF
